

Microchip MPLAB XC8 Assembler V2.10 build 88905656 
                                                                                               Thu May 28 20:22:12 2020

Microchip MPLAB XC8 C Compiler v2.10 (Free license) build 20190730164152 Og1 
     1                           	processor	18F458
     2                           	fnconf	rparam,??,?,0
     3                           	opt	pw 120
     4                           	opt	flic
     5                           	psect	cinit,global,reloc=2,class=CODE,delta=1
     6                           	psect	bssCOMRAM,global,class=COMRAM,space=1,delta=1,noexec
     7                           	psect	cstackCOMRAM,global,class=COMRAM,space=1,delta=1,noexec
     8                           	psect	text0,global,reloc=2,class=CODE,delta=1
     9                           	psect	intcode,global,reloc=2,class=CODE,delta=1
    10                           	psect	text2,global,reloc=2,class=CODE,delta=1
    11                           	psect	text3,global,reloc=2,class=CODE,delta=1,group=1
    12                           	psect	intsave_regs,global,class=BIGRAM,space=1,delta=1,noexec
    13                           	psect	rparam,global,class=COMRAM,space=1,delta=1,noexec
    14                           	psect	temp,global,ovrld,common,class=COMRAM,space=1,delta=1
    15  0000                     
    16                           ; Version 2.10
    17                           ; Generated 31/07/2019 GMT
    18                           ; 
    19                           ; Copyright © 2019, Microchip Technology Inc. and its subsidiaries ("Microchip")
    20                           ; All rights reserved.
    21                           ; 
    22                           ; This software is developed by Microchip Technology Inc. and its subsidiaries ("Microch
      +                          ip").
    23                           ; 
    24                           ; Redistribution and use in source and binary forms, with or without modification, are
    25                           ; permitted provided that the following conditions are met:
    26                           ; 
    27                           ;     1. Redistributions of source code must retain the above copyright notice, this lis
      +                          t of
    28                           ;        conditions and the following disclaimer.
    29                           ; 
    30                           ;     2. Redistributions in binary form must reproduce the above copyright notice, this 
      +                          list
    31                           ;        of conditions and the following disclaimer in the documentation and/or other
    32                           ;        materials provided with the distribution.
    33                           ; 
    34                           ;     3. Microchip's name may not be used to endorse or promote products derived from th
      +                          is
    35                           ;        software without specific prior written permission.
    36                           ; 
    37                           ; THIS SOFTWARE IS PROVIDED BY MICROCHIP "AS IS" AND ANY EXPRESS OR IMPLIED WARRANTIES,
    38                           ; INCLUDING, BUT NOT LIMITED TO, THE IMPLIED WARRANTIES OF MERCHANTABILITY AND FITNESS F
      +                          OR
    39                           ; PURPOSE ARE DISCLAIMED.  IN NO EVENT SHALL MICROCHIP BE LIABLE FOR ANY DIRECT, INDIREC
      +                          T,
    40                           ; INCIDENTAL, SPECIAL, EXEMPLARY, OR CONSEQUENTIAL DAMAGES (INCLUDING BUT NOT LIMITED TO
    41                           ; PROCUREMENT OF SUBSTITUTE GOODS OR SERVICES; LOSS OF USE, DATA OR PROFITS; OR BUSINESS
    42                           ; INTERRUPTION) HOWSOEVER CAUSED AND ON ANY THEORY OF LIABILITY, WHETHER IN CONTRACT, ST
      +                          RICT
    43                           ; LIABILITY, OR TORT (INCLUDING NEGLIGENCE OR OTHERWISE) ARISING IN ANY WAY OUT OF THE U
      +                          SE OF
    44                           ; THIS SOFTWARE, EVEN IF ADVISED OF THE POSSIBILITY OF SUCH DAMAGE.
    45                           ; 
    46                           ; 
    47                           ; Code-generator required, PIC18F458 Definitions
    48                           ; 
    49                           ; SFR Addresses
    50  0000                     _ADRESH	set	4036
    51  0000                     _ADRESL	set	4035
    52  0000                     _ADCON0bits	set	4034
    53  0000                     _INTCONbits	set	4082
    54  0000                     _PIE1bits	set	3997
    55  0000                     _ADCON1	set	4033
    56  0000                     _ADCON0	set	4034
    57  0000                     _TRISAbits	set	3986
    58  0000                     _TRISD	set	3989
    59  0000                     _TRISC	set	3988
    60  0000                     _PIR1bits	set	3998
    61                           
    62                           ; #config settings
    63  0000                     
    64                           	psect	cinit
    65  00014C                     __pcinit:
    66                           	opt callstack 0
    67  00014C                     start_initialization:
    68                           	opt callstack 0
    69  00014C                     __initialization:
    70                           	opt callstack 0
    71                           
    72                           ; Clear objects allocated to COMRAM (6 bytes)
    73  00014C  6A11               	clrf	(__pbssCOMRAM+5)& (0+255),c
    74  00014E  6A10               	clrf	(__pbssCOMRAM+4)& (0+255),c
    75  000150  6A0F               	clrf	(__pbssCOMRAM+3)& (0+255),c
    76  000152  6A0E               	clrf	(__pbssCOMRAM+2)& (0+255),c
    77  000154  6A0D               	clrf	(__pbssCOMRAM+1)& (0+255),c
    78  000156  6A0C               	clrf	__pbssCOMRAM& (0+255),c
    79  000158                     end_of_initialization:
    80                           	opt callstack 0
    81  000158                     __end_of__initialization:
    82                           	opt callstack 0
    83  000158  9012               	bcf	int$flags,0,c	;clear compiler interrupt flag (level 1)
    84  00015A  9212               	bcf	int$flags,1,c	;clear compiler interrupt flag (level 2)
    85  00015C  0100               	movlb	0
    86  00015E  EF8D  F000         	goto	_main	;jump to C main() function
    87                           
    88                           	psect	bssCOMRAM
    89  00000C                     __pbssCOMRAM:
    90                           	opt callstack 0
    91  00000C                     _Bin_Temp:
    92                           	opt callstack 0
    93  00000C                     	ds	2
    94  00000E                     _H_Byte:
    95                           	opt callstack 0
    96  00000E                     	ds	2
    97  000010                     _L_byte:
    98                           	opt callstack 0
    99  000010                     	ds	2
   100                           
   101                           	psect	cstackCOMRAM
   102  000001                     __pcstackCOMRAM:
   103                           	opt callstack 0
   104  000001                     ?___lwdiv:
   105                           	opt callstack 0
   106  000001                     ___lwdiv@dividend:
   107                           	opt callstack 0
   108                           
   109                           ; 2 bytes @ 0x0
   110  000001                     	ds	2
   111  000003                     ___lwdiv@divisor:
   112                           	opt callstack 0
   113                           
   114                           ; 2 bytes @ 0x2
   115  000003                     	ds	2
   116  000005                     ___lwdiv@quotient:
   117                           	opt callstack 0
   118                           
   119                           ; 2 bytes @ 0x4
   120  000005                     	ds	2
   121  000007                     ___lwdiv@counter:
   122                           	opt callstack 0
   123                           
   124                           ; 1 bytes @ 0x6
   125  000007                     	ds	1
   126  000008                     ??_AD_ISR:
   127                           
   128                           ; 1 bytes @ 0x7
   129  000008                     	ds	2
   130  00000A                     AD_ISR@t_Bin_Temp:
   131                           	opt callstack 0
   132                           
   133                           ; 2 bytes @ 0x9
   134  00000A                     	ds	2
   135  00000C                     
   136                           ; 1 bytes @ 0xB
   137 ;;
   138 ;;Main: autosize = 0, tempsize = 0, incstack = 0, save=0
   139 ;;
   140 ;; *************** function _main *****************
   141 ;; Defined at:
   142 ;;		line 72 in file "main.c"
   143 ;; Parameters:    Size  Location     Type
   144 ;;		None
   145 ;; Auto vars:     Size  Location     Type
   146 ;;		None
   147 ;; Return value:  Size  Location     Type
   148 ;;                  1    wreg      void 
   149 ;; Registers used:
   150 ;;		wreg, status,2
   151 ;; Tracked objects:
   152 ;;		On entry : 0/0
   153 ;;		On exit  : 0/0
   154 ;;		Unchanged: 0/0
   155 ;; Data sizes:     COMRAM   BANK0   BANK1   BANK2   BANK3   BANK4   BANK5
   156 ;;      Params:         0       0       0       0       0       0       0
   157 ;;      Locals:         0       0       0       0       0       0       0
   158 ;;      Temps:          0       0       0       0       0       0       0
   159 ;;      Totals:         0       0       0       0       0       0       0
   160 ;;Total ram usage:        0 bytes
   161 ;; Hardware stack levels required when called:    3
   162 ;; This function calls:
   163 ;;		Nothing
   164 ;; This function is called by:
   165 ;;		Startup code after reset
   166 ;; This function uses a non-reentrant model
   167 ;;
   168                           
   169                           	psect	text0
   170  00011A                     __ptext0:
   171                           	opt callstack 0
   172  00011A                     _main:
   173                           	opt callstack 28
   174  00011A  FFFF               	dw	65535	; assembler added errata NOP
   175                           
   176                           ;main.c: 75:     TRISC =0;
   177  00011C  0E00               	movlw	0
   178  00011E  6E94               	movwf	148,c	;volatile
   179                           
   180                           ;main.c: 76:     TRISD = 0;
   181  000120  0E00               	movlw	0
   182  000122  6E95               	movwf	149,c	;volatile
   183  000124                     
   184                           ;main.c: 77:     TRISAbits.TRISA0 = 1;
   185  000124  8092               	bsf	146,0,c	;volatile
   186  000126                     
   187                           ;main.c: 78:     TRISAbits.TRISA2 = 1;
   188  000126  8492               	bsf	146,2,c	;volatile
   189                           
   190                           ;main.c: 79:     ADCON0 = 0x81;
   191  000128  0E81               	movlw	129
   192  00012A  6EC2               	movwf	194,c	;volatile
   193                           
   194                           ;main.c: 80:     ADCON1 = 0xC5;
   195  00012C  0EC5               	movlw	197
   196  00012E  6EC1               	movwf	193,c	;volatile
   197  000130                     
   198                           ;main.c: 83:     PIR1bits.ADIF =0;
   199  000130  9C9E               	bcf	158,6,c	;volatile
   200  000132                     
   201                           ;main.c: 84:     PIE1bits.ADIE = 1;
   202  000132  8C9D               	bsf	157,6,c	;volatile
   203  000134                     
   204                           ;main.c: 85:     INTCONbits.PEIE = 1;
   205  000134  8CF2               	bsf	242,6,c	;volatile
   206  000136                     
   207                           ;main.c: 86:     INTCONbits.GIE = 1;
   208  000136  8EF2               	bsf	242,7,c	;volatile
   209  000138                     l775:
   210  000138  FFFF               	dw	65535	; assembler added errata NOP
   211                           
   212                           ;main.c: 89:        _delay((unsigned long)((100)*(4000000/4000000.0)));
   213  00013A  0E19               	movlw	25
   214  00013C                     u97:
   215  00013C  FFFF               	dw	65535	; errata NOP
   216  00013E  2EE8               	decfsz	wreg,f,c
   217  000140  D7FD               	bra	u97
   218  000142                     
   219                           ;main.c: 90:        ADCON0bits.GO = 1;
   220  000142  84C2               	bsf	194,2,c	;volatile
   221  000144  EF9C  F000         	goto	l775
   222  000148  EF15  F000         	goto	start
   223  00014C                     __end_of_main:
   224                           	opt callstack 0
   225                           
   226 ;; *************** function _chk_isr *****************
   227 ;; Defined at:
   228 ;;		line 67 in file "main.c"
   229 ;; Parameters:    Size  Location     Type
   230 ;;		None
   231 ;; Auto vars:     Size  Location     Type
   232 ;;		None
   233 ;; Return value:  Size  Location     Type
   234 ;;                  1    wreg      void 
   235 ;; Registers used:
   236 ;;		wreg, status,2, status,0, cstack
   237 ;; Tracked objects:
   238 ;;		On entry : 0/0
   239 ;;		On exit  : 0/0
   240 ;;		Unchanged: 0/0
   241 ;; Data sizes:     COMRAM   BANK0   BANK1   BANK2   BANK3   BANK4   BANK5
   242 ;;      Params:         0       0       0       0       0       0       0
   243 ;;      Locals:         0       0       0       0       0       0       0
   244 ;;      Temps:          0       0       0       0       0       0       0
   245 ;;      Totals:         0       0       0       0       0       0       0
   246 ;;Total ram usage:        0 bytes
   247 ;; Hardware stack levels used:    1
   248 ;; Hardware stack levels required when called:    2
   249 ;; This function calls:
   250 ;;		_AD_ISR
   251 ;; This function is called by:
   252 ;;		Interrupt level 2
   253 ;; This function uses a non-reentrant model
   254 ;;
   255                           
   256                           	psect	intcode
   257  000008                     __pintcode:
   258                           	opt callstack 0
   259  000008                     _chk_isr:
   260                           	opt callstack 0
   261  000008  FFFF               	dw	65535	; assembler added errata NOP
   262                           
   263                           ;incstack = 0
   264  00000A  8212               	bsf	int$flags,1,c	;set compiler interrupt flag (level 2)
   265  00000C                     
   266                           ;main.c: 68:     if(PIR1bits.ADIF == 1)
   267  00000C  AC9E               	btfss	158,6,c	;volatile
   268  00000E  EF0B  F000         	goto	i2u8_41
   269  000012  EF0E  F000         	goto	i2u8_40
   270  000016                     i2u8_41:
   271  000016  FFFF               	dw	65535	; assembler added errata NOP
   272  000018  EF11  F000         	goto	i2l38
   273  00001C                     i2u8_40:
   274  00001C  FFFF               	dw	65535	; assembler added errata NOP
   275  00001E                     
   276                           ;main.c: 69:         AD_ISR();
   277  00001E  EC5F  F000         	call	_AD_ISR	;wreg free
   278  000022                     i2l38:
   279  000022  FFFF               	dw	65535	; assembler added errata NOP
   280  000024  9212               	bcf	int$flags,1,c	;clear compiler interrupt flag (level 2)
   281  000026  0011               	retfie		f
   282  000028  FFFF               	dw	65535	; errata NOP
   283  00002A                     __end_of_chk_isr:
   284                           	opt callstack 0
   285                           
   286 ;; *************** function _AD_ISR *****************
   287 ;; Defined at:
   288 ;;		line 95 in file "main.c"
   289 ;; Parameters:    Size  Location     Type
   290 ;;		None
   291 ;; Auto vars:     Size  Location     Type
   292 ;;  t_Bin_Temp      2    9[COMRAM] unsigned int 
   293 ;; Return value:  Size  Location     Type
   294 ;;                  1    wreg      void 
   295 ;; Registers used:
   296 ;;		wreg, status,2, status,0, cstack
   297 ;; Tracked objects:
   298 ;;		On entry : 0/0
   299 ;;		On exit  : 0/0
   300 ;;		Unchanged: 0/0
   301 ;; Data sizes:     COMRAM   BANK0   BANK1   BANK2   BANK3   BANK4   BANK5
   302 ;;      Params:         0       0       0       0       0       0       0
   303 ;;      Locals:         2       0       0       0       0       0       0
   304 ;;      Temps:          2       0       0       0       0       0       0
   305 ;;      Totals:         4       0       0       0       0       0       0
   306 ;;Total ram usage:        4 bytes
   307 ;; Hardware stack levels used:    1
   308 ;; Hardware stack levels required when called:    1
   309 ;; This function calls:
   310 ;;		___lwdiv
   311 ;; This function is called by:
   312 ;;		_chk_isr
   313 ;; This function uses a non-reentrant model
   314 ;;
   315                           
   316                           	psect	text2
   317  0000BE                     __ptext2:
   318                           	opt callstack 0
   319  0000BE                     _AD_ISR:
   320                           	opt callstack 0
   321  0000BE  FFFF               	dw	65535	; assembler added errata NOP
   322  0000C0                     
   323                           ;main.c: 96:     L_byte = ADRESL;
   324  0000C0  CFC3 F010          	movff	4035,_L_byte	;volatile
   325  0000C4  6A11               	clrf	(_L_byte+1)^0,c
   326                           
   327                           ;main.c: 97:     H_Byte = ADRESH;
   328  0000C6  CFC4 F00E          	movff	4036,_H_Byte	;volatile
   329  0000CA  6A0F               	clrf	(_H_Byte+1)^0,c
   330  0000CC                     
   331                           ;main.c: 98:     unsigned int t_Bin_Temp = H_Byte << 8 | L_byte;
   332  0000CC  500E               	movf	_H_Byte^0,w,c
   333  0000CE  6E09               	movwf	(??_AD_ISR+1)^0,c
   334  0000D0  6A08               	clrf	??_AD_ISR^0,c
   335  0000D2  5010               	movf	_L_byte^0,w,c
   336  0000D4  1008               	iorwf	??_AD_ISR^0,w,c
   337  0000D6  6E0A               	movwf	AD_ISR@t_Bin_Temp^0,c
   338  0000D8  5011               	movf	(_L_byte+1)^0,w,c
   339  0000DA  1009               	iorwf	(??_AD_ISR+1)^0,w,c
   340  0000DC  6E0B               	movwf	(AD_ISR@t_Bin_Temp+1)^0,c
   341  0000DE                     
   342                           ;main.c: 99:     Bin_Temp = t_Bin_Temp /5;
   343  0000DE  C00A  F001         	movff	AD_ISR@t_Bin_Temp,___lwdiv@dividend
   344  0000E2  C00B  F002         	movff	AD_ISR@t_Bin_Temp+1,___lwdiv@dividend+1
   345  0000E6  0E00               	movlw	0
   346  0000E8  6E04               	movwf	(___lwdiv@divisor+1)^0,c
   347  0000EA  0E05               	movlw	5
   348  0000EC  6E03               	movwf	___lwdiv@divisor^0,c
   349  0000EE  EC17  F000         	call	___lwdiv	;wreg free
   350  0000F2  C001  F00C         	movff	?___lwdiv,_Bin_Temp
   351  0000F6  C002  F00D         	movff	?___lwdiv+1,_Bin_Temp+1
   352  0000FA                     
   353                           ;main.c: 100:     _delay((unsigned long)((250)*(4000000/4000.0)));
   354  0000FA  0E01               	movlw	1
   355  0000FC  6E09               	movwf	(??_AD_ISR+1)^0,c
   356  0000FE  0EF4               	movlw	244
   357  000100  6E08               	movwf	??_AD_ISR^0,c
   358  000102  0EA8               	movlw	168
   359  000104                     i2u10_47:
   360  000104  FFFF               	dw	65535	; errata NOP
   361  000106  2EE8               	decfsz	wreg,f,c
   362  000108  D7FD               	bra	i2u10_47
   363  00010A  2E08               	decfsz	??_AD_ISR^0,f,c
   364  00010C  D7FB               	bra	i2u10_47
   365  00010E  2E09               	decfsz	(??_AD_ISR+1)^0,f,c
   366  000110  D7F9               	bra	i2u10_47
   367  000112  D000               	nop2	
   368  000114                     
   369                           ;main.c: 101:     PIR1bits.ADIF = 0;
   370  000114  9C9E               	bcf	158,6,c	;volatile
   371  000116  0012               	return		;funcret
   372  000118  FFFF               	dw	65535	; errata NOP
   373  00011A                     __end_of_AD_ISR:
   374                           	opt callstack 0
   375                           
   376 ;; *************** function ___lwdiv *****************
   377 ;; Defined at:
   378 ;;		line 7 in file "C:\Program Files (x86)\Microchip\xc8\v2.10\pic\sources\c99\common\lwdiv.c"
   379 ;; Parameters:    Size  Location     Type
   380 ;;  dividend        2    0[COMRAM] unsigned int 
   381 ;;  divisor         2    2[COMRAM] unsigned int 
   382 ;; Auto vars:     Size  Location     Type
   383 ;;  quotient        2    4[COMRAM] unsigned int 
   384 ;;  counter         1    6[COMRAM] unsigned char 
   385 ;; Return value:  Size  Location     Type
   386 ;;                  2    0[COMRAM] unsigned int 
   387 ;; Registers used:
   388 ;;		wreg, status,2, status,0
   389 ;; Tracked objects:
   390 ;;		On entry : 0/0
   391 ;;		On exit  : 0/0
   392 ;;		Unchanged: 0/0
   393 ;; Data sizes:     COMRAM   BANK0   BANK1   BANK2   BANK3   BANK4   BANK5
   394 ;;      Params:         4       0       0       0       0       0       0
   395 ;;      Locals:         3       0       0       0       0       0       0
   396 ;;      Temps:          0       0       0       0       0       0       0
   397 ;;      Totals:         7       0       0       0       0       0       0
   398 ;;Total ram usage:        7 bytes
   399 ;; Hardware stack levels used:    1
   400 ;; This function calls:
   401 ;;		Nothing
   402 ;; This function is called by:
   403 ;;		_AD_ISR
   404 ;; This function uses a non-reentrant model
   405 ;;
   406                           
   407                           	psect	text3
   408  00002E                     __ptext3:
   409                           	opt callstack 0
   410  00002E                     ___lwdiv:
   411                           	opt callstack 0
   412  00002E  FFFF               	dw	65535	; assembler added errata NOP
   413  000030  0E00               	movlw	0
   414  000032  6E06               	movwf	(___lwdiv@quotient+1)^0,c
   415  000034  0E00               	movlw	0
   416  000036  6E05               	movwf	___lwdiv@quotient^0,c
   417  000038  5003               	movf	___lwdiv@divisor^0,w,c
   418  00003A  1004               	iorwf	(___lwdiv@divisor+1)^0,w,c
   419  00003C  B4D8               	btfsc	status,2,c
   420  00003E  EF23  F000         	goto	i2u5_41
   421  000042  EF26  F000         	goto	i2u5_40
   422  000046                     i2u5_41:
   423  000046  FFFF               	dw	65535	; assembler added errata NOP
   424  000048  EF57  F000         	goto	i2l543
   425  00004C                     i2u5_40:
   426  00004C  FFFF               	dw	65535	; assembler added errata NOP
   427  00004E  0E01               	movlw	1
   428  000050  6E07               	movwf	___lwdiv@counter^0,c
   429  000052  EF30  F000         	goto	i2l787
   430  000056                     i2l785:
   431  000056  FFFF               	dw	65535	; assembler added errata NOP
   432  000058  90D8               	bcf	status,0,c
   433  00005A  3603               	rlcf	___lwdiv@divisor^0,f,c
   434  00005C  3604               	rlcf	(___lwdiv@divisor+1)^0,f,c
   435  00005E  2A07               	incf	___lwdiv@counter^0,f,c
   436  000060                     i2l787:
   437  000060  FFFF               	dw	65535	; assembler added errata NOP
   438  000062  AE04               	btfss	(___lwdiv@divisor+1)^0,7,c
   439  000064  EF36  F000         	goto	i2u6_41
   440  000068  EF39  F000         	goto	i2u6_40
   441  00006C                     i2u6_41:
   442  00006C  FFFF               	dw	65535	; assembler added errata NOP
   443  00006E  EF2B  F000         	goto	i2l785
   444  000072                     i2u6_40:
   445  000072  FFFF               	dw	65535	; assembler added errata NOP
   446  000074                     i2l789:
   447  000074  FFFF               	dw	65535	; assembler added errata NOP
   448  000076  90D8               	bcf	status,0,c
   449  000078  3605               	rlcf	___lwdiv@quotient^0,f,c
   450  00007A  3606               	rlcf	(___lwdiv@quotient+1)^0,f,c
   451  00007C  5003               	movf	___lwdiv@divisor^0,w,c
   452  00007E  5C01               	subwf	___lwdiv@dividend^0,w,c
   453  000080  5004               	movf	(___lwdiv@divisor+1)^0,w,c
   454  000082  5802               	subwfb	(___lwdiv@dividend+1)^0,w,c
   455  000084  A0D8               	btfss	status,0,c
   456  000086  EF47  F000         	goto	i2u7_41
   457  00008A  EF4A  F000         	goto	i2u7_40
   458  00008E                     i2u7_41:
   459  00008E  FFFF               	dw	65535	; assembler added errata NOP
   460  000090  EF50  F000         	goto	i2l797
   461  000094                     i2u7_40:
   462  000094  FFFF               	dw	65535	; assembler added errata NOP
   463  000096  5003               	movf	___lwdiv@divisor^0,w,c
   464  000098  5E01               	subwf	___lwdiv@dividend^0,f,c
   465  00009A  5004               	movf	(___lwdiv@divisor+1)^0,w,c
   466  00009C  5A02               	subwfb	(___lwdiv@dividend+1)^0,f,c
   467  00009E  8005               	bsf	___lwdiv@quotient^0,0,c
   468  0000A0                     i2l797:
   469  0000A0  FFFF               	dw	65535	; assembler added errata NOP
   470  0000A2  90D8               	bcf	status,0,c
   471  0000A4  3204               	rrcf	(___lwdiv@divisor+1)^0,f,c
   472  0000A6  3203               	rrcf	___lwdiv@divisor^0,f,c
   473  0000A8  2E07               	decfsz	___lwdiv@counter^0,f,c
   474  0000AA  EF3A  F000         	goto	i2l789
   475  0000AE                     i2l543:
   476  0000AE  FFFF               	dw	65535	; assembler added errata NOP
   477  0000B0  C005  F001         	movff	___lwdiv@quotient,?___lwdiv
   478  0000B4  C006  F002         	movff	___lwdiv@quotient+1,?___lwdiv+1
   479  0000B8  0012               	return		;funcret
   480  0000BA  FFFF               	dw	65535	; errata NOP
   481  0000BC                     __end_of___lwdiv:
   482                           	opt callstack 0
   483  0000BC  FFFF               	dw	65535	; assembler added errata NOP
   484                           
   485                           	psect	rparam
   486  0000                     
   487                           	psect	temp
   488  000012                     btemp:
   489                           	opt callstack 0
   490  000012                     	ds	1
   491  0000                     int$flags	set	btemp
   492  0000                     wtemp8	set	btemp+1
   493  0000                     ttemp5	set	btemp+1
   494  0000                     ttemp6	set	btemp+4
   495  0000                     ttemp7	set	btemp+8
   496                           tosu	equ	0xFFF
   497                           tosh	equ	0xFFE
   498                           tosl	equ	0xFFD
   499                           stkptr	equ	0xFFC
   500                           pclatu	equ	0xFFB
   501                           pclath	equ	0xFFA
   502                           pcl	equ	0xFF9
   503                           tblptru	equ	0xFF8
   504                           tblptrh	equ	0xFF7
   505                           tblptrl	equ	0xFF6
   506                           tablat	equ	0xFF5
   507                           prodh	equ	0xFF4
   508                           prodl	equ	0xFF3
   509                           indf0	equ	0xFEF
   510                           postinc0	equ	0xFEE
   511                           postdec0	equ	0xFED
   512                           preinc0	equ	0xFEC
   513                           plusw0	equ	0xFEB
   514                           fsr0h	equ	0xFEA
   515                           fsr0l	equ	0xFE9
   516                           wreg	equ	0xFE8
   517                           indf1	equ	0xFE7
   518                           postinc1	equ	0xFE6
   519                           postdec1	equ	0xFE5
   520                           preinc1	equ	0xFE4
   521                           plusw1	equ	0xFE3
   522                           fsr1h	equ	0xFE2
   523                           fsr1l	equ	0xFE1
   524                           bsr	equ	0xFE0
   525                           indf2	equ	0xFDF
   526                           postinc2	equ	0xFDE
   527                           postdec2	equ	0xFDD
   528                           preinc2	equ	0xFDC
   529                           plusw2	equ	0xFDB
   530                           fsr2h	equ	0xFDA
   531                           fsr2l	equ	0xFD9
   532                           status	equ	0xFD8


Data Sizes:
    Strings     0
    Constant    0
    Data        0
    BSS         6
    Persistent  0
    Stack       0

Auto Spaces:
    Space          Size  Autos    Used
    COMRAM           94     11      17
    BANK0           160      0       0
    BANK1           256      0       0
    BANK2           256      0       0
    BANK3           256      0       0
    BANK4           256      0       0
    BANK5           256      0       0

Pointer List with Targets:

    None.

Critical Paths under _main in COMRAM

    None.

Critical Paths under _chk_isr in COMRAM

    _chk_isr->_AD_ISR
    _AD_ISR->___lwdiv

Critical Paths under _main in BANK0

    None.

Critical Paths under _chk_isr in BANK0

    None.

Critical Paths under _main in BANK1

    None.

Critical Paths under _chk_isr in BANK1

    None.

Critical Paths under _main in BANK2

    None.

Critical Paths under _chk_isr in BANK2

    None.

Critical Paths under _main in BANK3

    None.

Critical Paths under _chk_isr in BANK3

    None.

Critical Paths under _main in BANK4

    None.

Critical Paths under _chk_isr in BANK4

    None.

Critical Paths under _main in BANK5

    None.

Critical Paths under _chk_isr in BANK5

    None.

Call Graph Tables:

 ---------------------------------------------------------------------------------
 (Depth) Function   	        Calls       Base Space   Used Autos Params    Refs
 ---------------------------------------------------------------------------------
 (0) _main                                                 0     0      0       0
 ---------------------------------------------------------------------------------
 Estimated maximum stack depth 0
 ---------------------------------------------------------------------------------
 (Depth) Function   	        Calls       Base Space   Used Autos Params    Refs
 ---------------------------------------------------------------------------------
 (1) _chk_isr                                              0     0      0     337
                             _AD_ISR
 ---------------------------------------------------------------------------------
 (2) _AD_ISR                                               4     4      0     337
                                              7 COMRAM     4     4      0
                            ___lwdiv
 ---------------------------------------------------------------------------------
 (3) ___lwdiv                                              7     3      4     314
                                              0 COMRAM     7     3      4
 ---------------------------------------------------------------------------------
 Estimated maximum stack depth 3
 ---------------------------------------------------------------------------------

 Call Graph Graphs:

 _main (ROOT)

 _chk_isr (ROOT)
   _AD_ISR
     ___lwdiv

 Address spaces:
Name               Size   Autos  Total    Cost      Usage
BIGRAM             5FF      0       0      16        0.0%
EEDATA             100      0       0       0        0.0%
BITBANK5           100      0       0      14        0.0%
BANK5              100      0       0      15        0.0%
BITBANK4           100      0       0      12        0.0%
BANK4              100      0       0      13        0.0%
BITBANK3           100      0       0      10        0.0%
BANK3              100      0       0      11        0.0%
BITBANK2           100      0       0       7        0.0%
BANK2              100      0       0       8        0.0%
BITBANK1           100      0       0       5        0.0%
BANK1              100      0       0       6        0.0%
BITBANK0            A0      0       0       3        0.0%
BANK0               A0      0       0       4        0.0%
BITCOMRAM           5E      0       0       0        0.0%
COMRAM              5E      B      11       1       18.1%
BITSFR_1             0      0       0     200        0.0%
SFR_1                0      0       0     200        0.0%
BITSFR               0      0       0     200        0.0%
SFR                  0      0       0     200        0.0%
STACK                0      0       0       2        0.0%
NULL                 0      0       0       0        0.0%
ABS                  0      0      11       9        0.0%
DATA                 0      0      11      17        0.0%
CODE                 0      0       0       0        0.0%


Microchip Technology PIC18 Macro Assembler V2.10 build 88905656 
Symbol Table                                                                                   Thu May 28 20:22:12 2020

                                                                   u97 013C  
                                                         __CFG_CP0$OFF 000000  
                                                         __CFG_CP1$OFF 000000  
                                                         __CFG_CP2$OFF 000000  
                                                         __CFG_CP3$OFF 000000  
                                                          __CFG_OSC$HS 000000  
                                                          __CFG_LVP$ON 000000  
                                                                  l761 011A  
                                                                  l771 0134  
                                                                  l763 0124  
                                                                  l773 0136  
                                                                  l765 0126  
                                                                  l775 0138  
                                                                  l767 0130  
                                                                  l777 0142  
                                                                  l769 0132  
                                                         __CFG_CPB$OFF 000000  
                                                         __CFG_CPD$OFF 000000  
                                                         __CFG_BOR$OFF 000000  
                                                         __CFG_BORV$25 000000  
                                                                  wreg 000FE8  
                                                         __CFG_WDT$OFF 000000  
                                                                 i2l38 0022  
                                                                 i2l49 0116  
                                                         __CFG_STVR$ON 000000  
                                                                 _main 011A  
                                                                 btemp 0012  
                                                                 start 002A  
                                                         ___param_bank 000000  
                                                        __CFG_OSCS$OFF 000000  
                                                                ?_main 0001  
                                                      __end_of___lwdiv 00BC  
                                                                i2l550 00B8  
                                                                i2l543 00AE  
                                                                i2l801 00C0  
                                                                i2l803 00CC  
                                                                i2l811 000C  
                                                                i2l805 00DE  
                                                                i2l813 001E  
                                                                i2l807 00FA  
                                                                i2l809 0114  
                                                     AD_ISR@t_Bin_Temp 000A  
                                                                i2l781 0038  
                                                                i2l791 007C  
                                                                i2l783 004E  
                                                                i2l793 0096  
                                                                i2l785 0056  
                                                                i2l795 009E  
                                                                i2l787 0060  
                                                                i2l779 0030  
                                                                i2l797 00A0  
                                                                i2l789 0074  
                                                                i2l799 00A8  
                                                                _TRISC 000F94  
                                                                _TRISD 000F95  
                                                        __CFG_PWRT$OFF 000000  
                                                      __end_of_chk_isr 002A  
                                                        __CFG_WRT0$OFF 000000  
                                                        __CFG_WRT1$OFF 000000  
                                                        __CFG_WRT2$OFF 000000  
                                                        __CFG_WRT3$OFF 000000  
                                                       __CFG_EBTR0$OFF 000000  
                                                       __CFG_EBTR1$OFF 000000  
                                                       __CFG_EBTR2$OFF 000000  
                                                       __CFG_EBTR3$OFF 000000  
                                                        __CFG_WRTB$OFF 000000  
                                                        __CFG_WRTC$OFF 000000  
                                                        __CFG_WRTD$OFF 000000  
                                                       __CFG_EBTRB$OFF 000000  
                                                                ttemp5 0013  
                                                                ttemp6 0016  
                                                                ttemp7 001A  
                                                                status 000FD8  
                                                                wtemp8 0013  
                                                      __initialization 014C  
                                                         __end_of_main 014C  
                                                               ??_main 000C  
                                                        __activetblptr 000000  
                                                               _ADCON0 000FC2  
                                                               _ADCON1 000FC1  
                                                               _ADRESH 000FC4  
                                                               _ADRESL 000FC3  
                                                               _AD_ISR 00BE  
                                                       __CFG_WDTPS$128 000000  
                                                               i2u5_40 004C  
                                                               i2u5_41 0046  
                                                               i2u6_40 0072  
                                                               i2u6_41 006C  
                                                               i2u7_40 0094  
                                                               i2u7_41 008E  
                                                               i2u8_40 001C  
                                                               i2u8_41 0016  
                                                               _H_Byte 000E  
                                                               _L_byte 0010  
                                                            ??___lwdiv 0005  
                                                            ??_chk_isr 000C  
                                                           __accesstop 0060  
                                              __end_of__initialization 0158  
                                                        ___rparam_used 000001  
                                                       __pcstackCOMRAM 0001  
                                                              ?_AD_ISR 0001  
                                                              i2u10_47 0104  
                                                      __size_of_AD_ISR 005C  
                                                              __Hparam 0000  
                                                              __Lparam 0000  
                                                              ___lwdiv 002E  
                                                              __pcinit 014C  
                                                              _chk_isr 0008  
                                                              __ramtop 0600  
                                                              __ptext0 011A  
                                                              __ptext2 00BE  
                                                              __ptext3 002E  
                                                 end_of_initialization 0158  
                                                            _TRISAbits 000F92  
                                                       __end_of_AD_ISR 011A  
                                                  start_initialization 014C  
                                                             ??_AD_ISR 0008  
                                                          __pbssCOMRAM 000C  
                                                     ___lwdiv@dividend 0001  
                                                            __pintcode 0008  
                                                             ?___lwdiv 0001  
                                                             ?_chk_isr 0001  
                                                     ___lwdiv@quotient 0005  
                                                             _PIE1bits 000F9D  
                                                             _PIR1bits 000F9E  
                                                           _ADCON0bits 000FC2  
                                                             _Bin_Temp 000C  
                                                             __Hrparam 0000  
                                                             __Lrparam 0000  
                                                     __size_of___lwdiv 008E  
                                                     __size_of_chk_isr 0022  
                                                      ___lwdiv@divisor 0003  
                                                      ___lwdiv@counter 0007  
                                                        __size_of_main 0032  
                                                             int$flags 0012  
                                                           _INTCONbits 000FF2  
                                                             intlevel2 0162  
